:03000000020630C5
:0C063000787FE4F6D8FD7581760206772D
:1007B400E4F594F593F592F591F596F595F5B2F582
:0A07C400B1F5B4F5B3F5CAF5C9228A
:10079400E4FDFCE4FBFAC3EB9FEA9E50070BBB00AD
:1007A400010A80F20DBD00010CBC13E7BD88E422F0
:03083A00015E005C
:0A080A00758E1575D7D875D6FF223C
:04082E007598502247
:0C07F300759A5043AF0143B501D2AF220C
:0408320075AC10226F
:040836007584102293
:0A0814008F99A299B340FBC299220C
:10076F008B148A158916AB14AA15A9161205A26047
:10077F00130516E5167002051514F91205A2FF12DE
:05078F00081480E222C5
:0B07FF008F9BE59A30E1FB539AFD222E
:100740008B738A7489758D76E4FDFCC3ED957674A0
:1007500080F86C985018AB73AA74A9758D828C833D
:0F0760001205BBFF1207FF0DBD00010C80DD224B
:03004300020003B5
:10000300C0E0C083C082C0D075D008E59A30E02636
:10001300539AFEAE9B7440255EF8A60E055EE55E20
:10002300B4080E7B007A0079227D19120740755EB1
:0F00330000AF0E120814D0D0D082D083D0E032AC
:06082800AE0712081422C5
:1003A20000C1814001C0804101C0804100C1814043
:1003B20001C0804100C1814000C1814001C0804133
:1003C20001C0804100C1814000C1814001C0804123
:1003D20000C1814001C0804101C0804100C1814013
:1003E20001C0804100C1814000C1814001C0804103
:1003F20000C1814001C0804101C0804100C18140F3
:1004020000C1814001C0804101C0804100C18140E2
:1004120001C0804100C1814000C1814001C08041D2
:1004220001C0804100C1814000C1814001C08041C2
:1004320000C1814001C0804101C0804100C18140B2
:1004420000C1814001C0804101C0804100C18140A2
:1004520001C0804100C1814000C1814001C0804192
:1004620000C1814001C0804101C0804100C1814082
:1004720001C0804100C1814000C1814001C0804172
:1004820001C0804100C1814000C1814001C0804162
:1004920000C1814001C0804101C0804100C1814052
:1004A20000C0C101C30302C2C60607C705C5C40412
:1004B200CC0C0DCD0FCFCE0E0ACACB0BC90908C882
:1004C200D81819D91BDBDA1A1EDEDF1FDD1D1CDC72
:1004D20014D4D515D71716D6D21213D311D1D010E2
:1004E200F03031F133F3F23236F6F737F53534F4D2
:1004F2003CFCFD3DFF3F3EFEFA3A3BFB39F9F83842
:1005020028E8E929EB2B2AEAEE2E2FEF2DEDEC2C31
:10051200E42425E527E7E62622E2E323E12120E0A1
:10052200A06061A163A3A26266A6A767A56564A491
:100532006CACAD6DAF6F6EAEAA6A6BAB69A9A86801
:1005420078B8B979BB7B7ABABE7E7FBF7DBDBC7CF1
:10055200B47475B577B7B67672B2B373B17170B061
:100562005090915193535292965657975595945451
:100572009C5C5D9D5F9F9E5E5A9A9B5B99595898C1
:10058200884849894B8B8A4A4E8E8F4F8D4D4C8CB1
:100592004484854587474686824243834181804021
:1006BC008B108A1189128D137DFF7FFFAE131513DA
:1006CC00EE6031AB100512E512AA1170020511147F
:1006DC00F91205A26DFB7A0024A2F582EA3403F527
:1006EC0083E4936FFD74A22BF582EA3404F583E462
:0906FC0093FF80C8EFFEEDFF2220
:0D07E600646174612069732025780D0A009C
:0A081E00E4F5CF75CED975CDC022E8
:10070500E4FFFEC29275CF81E5CD30E7FB75CDC024
:10071500AFCF7E0075CF81E5CD30E7FB75CDC0EF5E
:100725007F00FEADCFEF2DFFE43EFE7BFF7A07791C
:0B073500E6F5628F631200A8D292224A
:1007CE0012080A12082E1207F312081E1207057FCE
:0807DE00327E0012079480F442
:10063C000207CEE493A3F8E493A34003F68001F2FF
:10064C0008DFF48029E493A3F85407240CC8C333BF
:10065C00C4540F4420C8834004F456800146F6DF8E
:10066C00E4800B010204081020408090083AE47EDC
:10067C00019360BCA3FF543F30E509541FFEE49383
:10068C00A360010ECF54C025E060A840B8E493A34A
:10069C00FAE493A3F8E493A3C8C582C8CAC583CA75
:1006AC00F0A3C8C582C8CAC583CADFE9DEE780BE2D
:01083D0000BA
:1005A200BB010689828A83E0225002E722BBFE0257
:0905B200E32289828A83E493228A
:1005BB00BB010CE58229F582E5833AF583E02250F5
:1005CB0006E92582F8E622BBFE06E92582F8E2223F
:0D05DB00E58229F582E5833AF583E4932259
:10004600E56E2462F8E6056E22785F300702786274
:10005600E475F0011205FA0205A22000EB7F2ED20C
:10006600008018EF540F2490D43440D4FF30040B92
:10007600EF24BFB41A0050032461FFE56F60021538
:100086006F0572E5727002057130070D785FE475D1
:10009600F0011205FAEF0205E80208287403D207F8
:1000A6008003E4C207F56E8B5F8A608961E4F56FB1
:1000B600F571F572E56F60077F2012008180F57596
:1000C60070FFC201C200C202C203C205C206C20854
:1000D60012004FFF700D3007057F00120092AF72BD
:1000E600AE7122B4255FC2D5C20412004FFF24D0E0
:1000F600B40A00501A75F00A786F30D50508B6FFB5
:100106000106C6A426F620D5047002D20380D9249F
:10011600CFB41A00EF5004C2E5D204020292D20113
:1001260080C6D20080C0D20280BCD2D580BAD205A9
:1001360080B47F201200812002077401B56F004051
:10014600F1120046FF1200810200BAD208D20680E0
:1001560095120046FB120046FA120046F94A4B7009
:100166000679637A037BFF20022EE56F602A7E0004
:100176008E827583001205BB60060EEE657070F008
:10018600C2D5EBC0E0EAC0E0E9C0E0EE1202D9D089
:10019600E0F9D0E0FAD0E0FB1205A2FF60AAEBC0BE
:1001A600E0EAC0E0E9C0E0120081D0E02401F9D025
:1001B600E03400FAD0E0FBE5700460DCD570D9804D
:1001C600877BFF7A0279D5D202809C7910800279EA
:1001D60008C206C2088008D2D5790A8004790AC204
:1001E600D5E570047002F570E4FAFDFEFF120046D4
:1001F600FC7B08200113120046FD7B1030000A121A
:100206000046FE120046FF7B20EC3382D592D55085
:1002160013C3E43000069FFFE49EFEE42001039D25
:10022600FDE49CFCE4CBF8C201EC700CCFCECDCC47
:10023600E824F8F870F38017C3EF33FFEE33FEEDD2
:1002460033FDEC33FCEB33FB994002FB0FD8E9EBB3
:10025600300105F8D0E0C448B201C0E00AEC4D4ECA
:100266004F78207B0070C2EAB5700040BCC0E01237
:1002760002DBD0F0D0E0200104C4C0E0C4B201C06B
:10028600F012006AD0F0D5F0EB0200BA12060A01AD
:10029600575301D15801284C01244201D54F01DDA5
:0F02A6004401DD49013D4301E35501C74601C74E
:1002B5004501C747038350012C2D01302E01532BD7
:1002C500013423015120036C2A00EC480000014B46
:1002D5003F3F3F00790AA2D5200314300509B91024
:1002E500020404B9080104A2D52006025001042025
:1002F50002689202B56F005034C0E07F20300319C8
:100305007F30A20272067205500F120332C202C27A
:1003150006C205C2087F30800F300503E9C0E01230
:100325000081300503D0E0F9D0E0B56FCC3005177A
:100335007F30B9100C1200817F583004077F788018
:1003450003B908031200813002057F2D0200817F69
:10035500202008F87F2B2006F322920280CF286EFA
:10036500756C6C2900D2011200463001F8C2017883
:100375006F30D50108F60200EC2D504349581200A4
:10038500462403B405004001E490037E93120072F5
:0D039500743A120072D203756F040201D198
:1005E800BB010689828A83F0225002F722BBFE01F2
:0205F800F322EC
:1005FA00FAE6FB0808E6F925F0F618E6CA3AF62202
:10060A00D083D082F8E4937012740193700DA3A37F
:10061A0093F8740193F5828883E473740293686093
:06062A00EFA3A3A380DF93
:00000001FF
