:03000000020246B3
:0C024600787FE4F6D8FD75815A02028D25
:1003F100E4F594F593F592F591F596F595F5B2F549
:0A040100B1F5B4F5B3F5CAF5C92250
:1003D100E4FDFCE4FBFAC3EB9FEA9E50070BBB0074
:1003E100010A80F20DBD00010CBC13E7BD88E422B7
:03043800014C0074
:0A041600758E1575D7D875D6FF2234
:04003E00759850223F
:0C003200759A5043AF0143B501D2AF22D4
:0404300075AC102275
:040434007584102299
:0A0420008F99A299B340FBC2992204
:10038B008B558A568957AB55AA56A95712031B6032
:10039B00130557E5577002055614F912031BFF128C
:0503AB00042080E222A5
:0B040B008F9BE59A30E1FB539AFD2225
:100003008B4D8A4E894F8D50E4FDFCC3ED955074A2
:1000130080F86C985018AB4DAA4EA94F8D828C83F3
:0F002300120334FF12040B0DBD00010C80DD220F
:0300430002036154
:10036100C0E0C0D075D008E59A30E019539AFEAFCD
:100371009B742E254CF8A60F054CE54CB40803756B
:0A0381004C00120420D0D0D0E0326E
:06042A00AE0712042022BF
:1000460000C1814001C0804101C0804100C18140A2
:1000560001C0804100C1814000C1814001C0804192
:1000660001C0804100C1814000C1814001C0804182
:1000760000C1814001C0804101C0804100C1814072
:1000860001C0804100C1814000C1814001C0804162
:1000960000C1814001C0804101C0804100C1814052
:1000A60000C1814001C0804101C0804100C1814042
:1000B60001C0804100C1814000C1814001C0804132
:1000C60001C0804100C1814000C1814001C0804122
:1000D60000C1814001C0804101C0804100C1814012
:1000E60000C1814001C0804101C0804100C1814002
:1000F60001C0804100C1814000C1814001C08041F2
:1001060000C1814001C0804101C0804100C18140E1
:1001160001C0804100C1814000C1814001C08041D1
:1001260001C0804100C1814000C1814001C08041C1
:1001360000C1814001C0804101C0804100C18140B1
:1001460000C0C101C30302C2C60607C705C5C40471
:10015600CC0C0DCD0FCFCE0E0ACACB0BC90908C8E1
:10016600D81819D91BDBDA1A1EDEDF1FDD1D1CDCD1
:1001760014D4D515D71716D6D21213D311D1D01041
:10018600F03031F133F3F23236F6F737F53534F431
:100196003CFCFD3DFF3F3EFEFA3A3BFB39F9F838A1
:1001A60028E8E929EB2B2AEAEE2E2FEF2DEDEC2C91
:1001B600E42425E527E7E62622E2E323E12120E001
:1001C600A06061A163A3A26266A6A767A56564A4F1
:1001D6006CACAD6DAF6F6EAEAA6A6BAB69A9A86861
:1001E60078B8B979BB7B7ABABE7E7FBF7DBDBC7C51
:1001F600B47475B577B7B67672B2B373B17170B0C1
:1002060050909151935352929656579755959454B0
:100216009C5C5D9D5F9F9E5E5A9A9B5B9959589820
:10022600884849894B8B8A4A4E8E8F4F8D4D4C8C10
:100236004484854587474686824243834181804080
:1002D2008B518A5289538D547DFF7FFFAE54155442
:1002E200EE6031AB510553E553AA52700205521428
:1002F200F912031B6DFB7A002446F582EA3400F5FD
:1003020083E4936FFD74462BF582EA3401F583E4AE
:0903120093FF80C8EFFEEDFF220D
:1003B00075580075590C12041612003E12003230A6
:1003C000CD04C2CD8002D2CD7F327E001203D18017
:0103D000EE3E
:100252000203B0E493A3F8E493A34003F68001F20F
:1002620008DFF48029E493A3F85407240CC8C333AD
:10027200C4540F4420C8834004F456800146F6DF7C
:10028200E4800B0102040810204080900438E47ED0
:10029200019360BCA3FF543F30E509541FFEE49371
:1002A200A360010ECF54C025E060A840B8E493A338
:1002B200FAE493A3F8E493A3C8C582C8CAC583CA63
:1002C200F0A3C8C582C8CAC583CADFE9DEE780BE1B
:01043B0000C0
:10031B00BB010689828A83E0225002E722BBFE02E0
:09032B00E32289828A83E4932213
:10033400BB010CE58229F582E5833AF583E022507E
:1003440006E92582F8E622BBFE06E92582F8E222C8
:0D035400E58229F582E5833AF583E49322E2
:00000001FF
