:0300000002009863
:0C009800787FE4F6D8FD75810A0200486C
:10006500E4F594F593F592F591F596F595F5B2F5D8
:0A007500B1F5B4F5B3F5CAF5C922E0
:10002800E4FDFCE4FBFAC3EB9FEA9E50070BBB0020
:10003800010A80F20DBD00010CBC13E7BD88E42263
:0A00AF00758E1575D7D875D6FF229F
:0400C30075985022BA
:0400C700759A5022B4
:0400CB0075AC1022DE
:0400CF007584102202
:0A00B9008F99A299B340FBC299226F
:100003008B088A09890AAB08AA09A90A12007F602A
:1000130013050AE50A7002050914F912007FFF129D
:0500230000B980E2229B
:0B00A4008F9BE59A30E1FB539AFD2290
:100048001200AF1200C77F761200A430CD04C2CDD3
:0D0058008002D2CD7F327E0012002880E9A8
:10007F00BB010689828A83E0225002E722BBFE027F
:09008F00E32289828A83E49322B2
:00000001FF
